:02000002D0002C
:1040000000400D00A4630D00000006000C00050137
:084010000401E80500000000B6
:04401800F05D0D004A
:10401C0009480A49884208B505D0094A824202D0AB
:10402C00121A01F074FE0748074A0021121A01F017
:10403C0094FE014808BD00BF7CD9032014630D0019
:10404C00E4D90320E4D90320F0E7032070B501F094
:10405C00B1F9074C074BE41AA40800251E46A542EB
:10406C0004D056F8253098470135F8E770BD00BFED
:10407C000C630D00D4620D0000F06EB808B500F0B2
:10408C0077F8BDE8084001F057B900F099BA00F094
:10409C009FBA00F09DBA0078B0FA80F040097047E2
:1040AC0001230370704710B50446006808B100F096
:1040BC008FFA204610BD000010B59EB0FF238DF87E
:1040CC0034308DF8353055238DF836301F4B186849
:1040DC00CDF8370015A800F0B1FC002307220DA97C
:1040EC0015A800F0D6FC1A4903A800F0BFFB03A9E1
:1040FC0008A800F0BBFB08A800F0C5FB044608A804
:10410C0044B900F0C2FB1EAA022322F86E0D032153
:10411C00009406E000F0BEFB00230093024610233F
:10412C00072115A800F043FC0A4915A800F0A0FCD3
:10413C0000F058FD642100F082FD00F053FD0022D8
:10414C0015A900F0C3FD1EB010BD00BF045E0D002C
:10415C00E8D90320085E0D0008B500F043FD00F01F
:10416C005FFD012001F099F8BDE80840FFF7A4BFFE
:10417C0008B500F037FD00F0C6FDFF22014608B17E
:10418C0011461046BDE8084001F097B870B51E4DB9
:10419C0000F05EF800244FF6FF736B812C60AC804E
:1041AC00AC712C81032000F097F9184A1849284665
:1041BC0001F040FC1748184D00F0C6FF134A174990
:1041CC00144801F037FC1649164800F0CDFB40F6B8
:1041DC00D816281900F028FB04F10800284400F038
:1041EC002DFC04F12C002844543400F027FCB4427C
:1041FC00EFD10D4800F002FE044A0C490A48BDE814
:10420C00704001F017BC00BFE4E30320E4D90320A5
:10421C00B3400D00FCD903200CDA0320474D0D00F0
:10422C00135E0D00E8D9032004DA0320554D0D0070
:10423C0008B5024B1B689B68019308BD680203001C
:10424C0008B5024B1B68DB68019308BD68020300CC
:10425C0008B5024B1B681B68019308BD2C020300B8
:10426C0008B5024B1B685B68019308BD180203007C
:10427C0008B5024B1B68DB68019308BD18020300EC
:10428C0008B5024B1B685B69019308BD180203005B
:10429C0008B5024B1B689B68019308BD78020300AC
:1042AC0008B5024B1B689B6C019308BD7802030098
:1042BC0008B5024B1B68DB6C019308BD7802030048
:1042CC0008B5024B1B681B6D019308BD78020300F7
:1042DC0008B5024B1B689B6D019308BD7802030067
:1042EC0008B5024B1B681B6E019308BD78020300D6
:1042FC0008B5034B1B68D3F89830019308BD000038
:10430C007802030008B5034B1B68D3F8F030019317
:10431C0008BD00007802030008B5024B1B689B68BF
:10432C00019308BD4802030008B5024B1B681B69CA
:10433C00019308BD4802030008B5024B1B685B697A
:10434C00019308BD4802030008B5024B1B685B6C67
:10435C00019308BD4802030008B5024B1B689B6C17
:10436C00019308BD4802030008B5024B1B68DB6CC7
:10437C00019308BD4802030008B5024B1B685B6D36
:10438C00019308BD4802030008B5024B1B685B692A
:10439C00019308BD6402030008B5024B1B681B683F
:1043AC00019308BD3C02030008B5024B1B68DB6897
:1043BC00019308BD3C02030008B5024B1B681B6946
:1043CC00019308BD3C02030008B5024B1B685B69F6
:1043DC00019308BD3C02030008B5024B1B689B69A6
:1043EC00019308BD3C02030008B5024B1B68DB6956
:1043FC00019308BD3C02030008B5024B1B689B6A85
:10440C00019308BD3C02030008B5024B1B681B68F6
:10441C00019308BD4C02030008B5024B1B681B69D5
:10442C00019308BD4C02030008B5024B1B685B6985
:10443C00019308BD4C02030008B5024B1B689B6935
:10444C00019308BD4C02030008B5024B1B68DB69E5
:10445C00019308BD4C02030008B5024B1B681B6A94
:10446C00019308BD4C02030008B5024B1B685B6846
:10447C00019308BD6002030008B5024B1B689B68E2
:10448C00019308BD6002030008B5024B1B68DB6892
:10449C00019308BD6002030008B5024B1B689B69C1
:1044AC00019308BD6002030008B5024B1B68DB6971
:1044BC00019308BD6002030008B5024B1B685B6BDF
:1044CC00019308BD6002030008B5024B1B681B6D0D
:1044DC00019308BD6002030008B5024B1B685B68C2
:1044EC00019308BD2002030008B5034B1B68D3F8E9
:1044FC008830019308BD00002002030008B5034B6F
:10450C001B68D3F89430019308BD0000200203000F
:10451C0008B5024B1B685B68019308BD40020300A1
:10452C0008B5024B1B689B68019308BD4002030051
:10453C0008B5024B1B68DB68019308BD4002030001
:10454C0008B5024B1B681B69019308BD40020300B0
:10455C0008B5024B1B685B69019308BD4002030060
:10456C0008B5024B1B689B69019308BD4002030010
:10457C0008B5024B1B68DB69019308BD40020300C0
:10458C0008B5024B1B681B6A019308BD400203006F
:10459C0008B5024B1B681B6B019308BD400203005E
:1045AC0008B5024B1B685B6B019308BD400203000E
:1045BC0008B5024B1B68DB6B019308BD440203007A
:1045CC0008B5024B1B681B68019308BD1C02030055
:1045DC0008B5024B1B685B68019308BD1C02030005
:1045EC0008B5024B1B689B68019308BD1C020300B5
:1045FC00002211464068FFF7C3BF002211464068F5
:10460C00FFF7CEBF00224068FFF7C2BF002281F047
:10461C0001014068FFF7ACBF00231A4619464068F9
:10462C00FFF79EBF00231A4619464068FFF790BF5C
:10463C00002211464068FFF783BF002211464068F4
:10464C00FFF76EBF002202214068FFF771BF002305
:10465C001A464068FFF75CBF024B03225A60024ABD
:10466C001A607047F0E30320405E0D0010B5094C52
:10467C0000204FF6FF732060A080A0712081638121
:10468C00FFF72AFF2046044A0449BDE8104001F018
:10469C00D1B900BFF8E30320E4D90320B3400D00E7
:1046AC0010B504460068FFF793FF204610BD10B507
:1046BC000446006808B1FFF78BFF00232360A3605A
:1046CC00636010BD38B504460D4600680131FFF734
:1046DC0087FF10B184E82100012038BD10B50368B4
:1046EC00044613B143688B4207D22046FFF7EAFF1A
:1046FC0020B1A3680BB922681370012010BD70B5EE
:10470C000E46114604461546FFF7E8FF18B9204639
:10471C00FFF7CDFF09E02A463146A560206801F07D
:10472C00F6FA2268A3680021D154204670BD38B532
:10473C000023044603604360836003730D4639B164
:10474C00084601F03BFB294602462046FFF7D7FFFF
:10475C00204638BD704700207047704700207047D6
:10476C0010B51421044601F06AF9204610BD10B5AD
:10477C001421044601F063F9204610BDFFF787BCF5
:10478C00FFF785BC10B50446006808B1FFF7E4FDDF
:10479C00204610BD08B50A20024A0021FFF78CFE06
:1047AC0008BD00BF7D420D0010B5036804469B6830
:1047BC009847A368013BA3602BB923682046DB68AC
:1047CC00BDE81040184710BDA0F13003DAB2092A39
:1047DC0001D818467047A0F16103052B01D8573852
:1047EC007047A0F14103052B94BF37384FF0FF30D1
:1047FC007047000010B500230370044B0446186882
:10480C00FFF7B2FD01232370204610BD0CE40320FA
:10481C0010B5037804461BB1024B1868FFF7ACFDCA
:10482C00204610BD0CE40320002202604260704759
:10483C0008B582798B799A4206D1062201F058FA92
:10484C00B0FA80F0400908BD002008BD10B5012366
:10485C000361054B024603F1100153F8044B42F877
:10486C00044B8B42F9D110BD44600D0010B50B699F
:10487C00036101F11002034651F8044B43F8044B59
:10488C009142F9D110BD00697047427B007B40EA30
:10489C0002207047704700000123F7B50361314BCC
:1048AC000E460546024603F1100153F8040B42F87C
:1048BC00040B8B42F9D1002E51D02421304601F04B
:1048CC0085FA042810D0002710242421304601F04A
:1048DC007DFAB84201D944BB41E02C440023A542E7
:1048EC003DD004F8013DFAE73078FFF76DFF041E68
:1048FC0018DB7078FFF768FF002813DB40EA041020
:10490C008DF80400B078FFF75FFF041E0ADBF07827
:10491C00FFF75AFF0028A1BF40EA04109DF80430AD
:10492C0028736B7300232B6119E0F05DFFF74CFFCC
:10493C00030612D4013C000128552421304601F015
:10494C0045FA0137874208D2F05DFFF73DFF40B2D0
:10495C000028A2BF2B5D184328550137B5E703B0DB
:10496C00F0BD00BF44600D0038B504460D46FFF79E
:10497C006DFF20462946FFF78FFF204638BDF0B566
:10498C008BB10024E51C8D420FD8661C055D875D3C
:10499C00974205D12E44B14207D31C60681CF0BD70
:1049AC0001352C44EEE71846F0BD0020F0BD2DE992
:1049BC00F74304460E461D461746002A3AD00A46CF
:1049CC0001AB016AFFF7DBFF9DF82830226A03BBBD
:1049DC00F8B1961C2E44361A1F2E2BD8DDF8048005
:1049EC0008F10209C8EB0202121A00EB080105EBF0
:1049FC00090092B22144204401F094F96B1C04F894
:104A0C0008302A46394604EB090001F080F9266289
:104A1C0010E0901C2B181F2B0CD86B1CA354224499
:104A2C0020623946567020442A4601F070F9226AF9
:104A3C002A442262206A03B0BDE8F0831FB5044605
:104A4C00034600F11F02002003F8010B93424FF0C4
:104A5C000001F9D104AA062302F8013D01232162C9
:104A6C00009120461946FFF7A2FF204604B010BD66
:104A7C0037B50C4605461421204601F0A7F9002352
:104A8C0000932246034609212846FFF790FF03B006
:104A9C0030BD07B5009313460A46FF21FFF787FF89
:104AAC0003B05DF804FB73B50A460E4601AB016A10
:104ABC000446FFF764FF054678B10198226A29186D
:104ACC00121A521B2144204401F021F9236A5D1B68
:104ADC00256231462046FFF7E6FF02B070BD0000AC
:104AEC0038B500254FF6FF73044643800E22294645
:104AFC0005700571063001F030F904F11400FFF770
:104B0C00A5FE04F12800FFF7A1FE044904F13C00C6
:104B1C00FFF70DFEE5642565204638BDFB600D00F2
:104B2C0010B58369C26903EBC2029342184606D0E2
:104B3C00046824888C4203F10803F6D110BD0020D0
:104B4C0010BD10B50A6852F8023F03605368436009
:104B5C0010BD1FB502680B6812881B889A420C4660
:104B6C000CD101466846FFF7ECFF214602A8FFF77F
:104B7C00E8FF02A96846FFF75BFE00B9002004B00D
:104B8C0010BD000010B504463420FFF77EFA014634
:104B9C0068B10023036043608360C36003614361B9
:104BAC008361C361036243628362C36203632160F6
:104BBC0019B90A4A0A20FFF77FFC0020FFF768FBAF
:104BCC0020B1064A00210A20FFF776FC002221685A
:104BDC000348FFF797FB204610BD00BF7D420D0038
:104BEC00B54F0D0010B50A4C2368DB070ED42046D8
:104BFC00FFF751FA50B10748FFF7C4FF2046FFF703
:104C0C004FFA054A0549034800F014FF014810BD4E
:104C1C0008E4032004E40320E4D90320C94D0D006B
:104C2C0013B501A8FFF7E6FD0020FFF731FB0446A2
:104C3C0001A8FFF7EDFD04EAE47002B010BD30B539
:104C4C0085B0002468460D46FFF7D4FD0C232146A1
:104C5C0001A8019402940394ADF80630FFF728FBE9
:104C6C00002805DB214601A8ADF80850FFF718FB1A
:104C7C0004466846FFF7CCFD204605B030BD08461B
:104C8C0009B90A4601E0096A0022FFF719BB10B501
:104C9C000C4611B90A46084606E001212046FFF7EA
:104CAC0002FF216A00222046BDE81040FFF710BB2E
:104CBC0013B501A8FFF79EFD0020FFF711FB04467A
:104CCC0001A8FFF7A5FD204602B010BD73B505463F
:104CDC000C4601A81646FFF78DFD21462846FFF726
:104CEC00CEFF002808DB31462846FFF7D0FF00280E
:104CFC0002DB2846FFF7DCFF044601A8FFF788FD1E
:104D0C00204602B070BD0368D8690028D4BF0020CB
:104D1C00012070470B68036013B15A6801325A6066
:104D2C00704710B50446006828B14368013B4360E6
:104D3C000BB9FFF739FD204610BD10B50446043001
:104D4C00FFF7EFFF204610BD10B504460430FFF707
:104D5C00E8FF204610BD70B504684368054604EBB7
:104D6C00C306A64204D0201DFFF7DBFF0834F8E78A
:104D7C002868FFF72DFC284670BD70B504684368A1
:104D8C00054604EBC306A64204D0201DFFF7C9FF5D
:104D9C000834F8E72868FFF71BFC284670BD10B5EF
:104DAC00046904F11800FFF7E8FF04F10C00FFF7A9
:104DBC00D2FF2046BDE81040FFF769B9F8B504688A
:104DCC000746C4B1A569E36905EBC306AE4204D03E
:104DDC00281DFFF7A6FF0835F8E7A069FFF7F8FBD9
:104DEC0004F10C00FFF7C9FF2046FFF7B4FF342194
:104DFC00204600F024FE3846F8BD000073B50025AF
:104E0C000560456006462420FFF73FF9044678B15B
:104E1C0003464FF6FF7223F8022BC0F802505D6078
:104E2C008572C572C560056145618561C5610562A4
:104E3C00002314200193FFF728F9034628B101221F
:104E4C0042608260084A0260046102A8726840F8FD
:104E5C00042D73603460FFF764FF33680BB9FFF700
:104E6C0099FC304602B070BD905E0D00884270B562
:104E7C0015461AD9904219D2A1F10806511A0439D3
:104E8C00151F44182B1F9E4225D0042C07D055F813
:104E9C00043C44F8043C29462046FFF73BFF2846D7
:104EAC00FFF73FFF083D083CECE714D00C1D061D36
:104EBC00231F9D420FD0042E07D054F8043C46F813
:104ECC00043C21463046FFF725FF2046FFF729FF1B
:104EDC0008340836ECE770BD2DE9F04104684368EE
:104EEC000546884604EBC307A74218D04146204626
:104EFC00FFF72FFE064608B90834F5E78CB1201DE4
:104F0C00FFF70FFF2B686A6804F1080103EBC2027C
:104F1C002046FFF7ABFF6B68013B6B6002E000269D
:104F2C0000E026463046BDE8F081F7B5044651F85E
:104F3C00043B4768009301A8FFF7ECFE6668A36882
:104F4C009E4214DB0136002E0BDDF000FFF738FB20
:104F5C00054618B394E8060001EBC202FFF786FF82
:104F6C0000E000252068FFF733FB2560A66026686B
:104F7C00626806EBC70506EBC202294605F108007C
:104F8C00FFF774FF35B1009B46F8373001A9281D97
:104F9C00FFF7C0FE636801336360012501A8FFF7CA
:104FAC00C0FE284603B0F0BD2DE9F04104468EB09A
:104FBC0003A80D46FFF71EFC2368032B02D0042B1D
:104FCC0042D087E004A8FFF719FF049B22891A80BE
:104FDC006268049952F8083FC1F802305368C1F86E
:104FEC00063007A8049B069305A9FFF793FE06A9B4
:104FFC0005F11800FFF799FF044607A8FFF791FE8B
:10500C002023069374B9364B009306AA23463549E0
:10501C0007943220FFF758FA049B21461888FFF7B3
:10502C0067F90DE0304A0092002306AA2D49079338
:10503C000120FFF749FA6B6A13B1E96A04A8984793
:10504C0005A8FFF76EFE45E021892846FFF768FDAD
:10505C00074600283ED00468A369E1694FF6FF7249
:10506C00228003EBC101994203D053F8080B428014
:10507C00F9E7E668236906EBC308B04504D0301D98
:10508C00FFF74FFE0836F8E700232361A669E369B2
:10509C0006EBC308B04504D0301DFFF742FE0836BE
:1050AC00F8E70023E361A372E372AB6A13B1296BD7
:1050BC003846984720230D4A06930092002309494D
:1050CC000793012006AAFFF7FFF9394605F11800EE
:1050DC00FFF702FF03A8FFF79BFB0EB0BDE8F081C2
:1050EC00065F0D00A45E0D002C5F0D00495F0D00E6
:1050FC0010B50446406808B1FEF7C9FF204610BD44
:10510C0007B503690C308DE8090003F13C00FFF78B
:10511C00C7FA6846FFF7ECFF03B05DF804FB00002C
:10512C0038B500230446036014200D46FEF7ADFF8E
:10513C0028B1012343608360024B0360056120604A
:10514C00204638BD745E0D0070B5002586B0056034
:10515C00456004465420FEF798FFCDF810D0064663
:10516C00059008B1FFF7BCFC314601AB02AA03A8BD
:10517C000595FFF7D5FF039B62682660636003A863
:10518C000392FFF7CEFD04A8FFF7B2FF23680BB91B
:10519C00FFF700FB204606B070BD000010B5064CB2
:1051AC00002320462360FFF7CFF82046034A04492A
:1051BC00BDE8104000F03EBC0CE40320E4D9032011
:1051CC0091470D00F8B506460D468F180024BD42D8
:1051DC000CD0336815F8011B9B68304698470028A3
:1051EC0001DB0444F3E7002C08BF04462046F8BD5D
:1051FC0070B505460C46084649B100F0DFFD2B683A
:10520C00024621462846DB68BDE87040184770BD51
:10521C0003689B68184730B58BB00B4600218DF89E
:10522C002410012A98BF0A220DF12304B3FBF2F5D6
:10523C0005FB123303F0FF03092B94BF30333733D4
:10524C00DBB2214604F801392B46002DEED1FFF7D5
:10525C00CFFF0BB030BD0000014B024A1A60704703
:10526C0010E40320C7600D00024B1A68024B1A6051
:10527C00704700BF7CD9032014E4032010B5836869
:10528C00044613B1032201469847204610BD10B5C1
:10529C000446FFF7F3FF204610BD10B50446FFF798
:1052AC00FBF8844208D01CB1BDE81040FFF7E4B80D
:1052BC00BDE81040FFF7E8B810BD70B505460E46C6
:1052CC001446FFF7E9F850B144EA062040EA0540DD
:1052DC00FFF7CAF8E720BDE87040FFF7E5B870BDEE
:1052EC000348044A04490023836000F0A3BB00BFB9
:1052FC0018E40320E4D903209B520D0008B50C4B95
:10530C0033B100F053F903681B699847002809DC96
:10531C00084B63B100F0C8F903681B699847002873
:10532C0003DC08BDAFF30080F2E7AFF3008008BDEB
:10533C00000000000000000008B5FFF7DFFFFEF7DB
:10534C009FFF014B186008BD4CE703200248034A3D
:10535C000349121A00F0DBBC00F4032004F4032010
:10536C0010630D0007B5002300931A466FF0770108
:10537C00FFF7C4F803B05DF804FB000007B54388E1
:10538C000A2B08D0502B09D1094B1B683BB103B039
:10539C005DF804EB1847FFF7E5FF06E000230093E8
:1053AC001A466FF07701FFF7A9F803B05DF804FB1C
:1053BC0028E4032038B5104C104D2368AB42104B39
:1053CC000CBF012200221A7002D0FFF7BFFF25602C
:1053DC00FEF746FF044600F0C9FC0A4B13B1204609
:1053EC00AFF3008000210748FFF7E2F800210648E0
:1053FC00BDE83840FFF778B800F403201E1C279A4C
:10540C002CE403200000000089530D00704710B5F8
:10541C001821044600F013FB204610BDF0B5037DA7
:10542C00062B8DB00E4600F104074FF0000402D09D
:10543C0000F1080518E00CAD394605F8304D2F2366
:10544C002A460A20FEF7A0FF284600F0B7FC336876
:10545C000246DB682946304698470FE024B12E21DE
:10546C003046FFF7D5FE044415F8011D0A223046DC
:10547C00FFF7D1FEBD420444F0D120460DB0F0BD83
:10548C0010B5054B0446112240F8043B002100F0F6
:10549C0064FC204610BD00BF68610D000346074A3E
:1054AC0010B543F8042B01F1100251F8044B43F8EA
:1054BC00044B9142F9D10A781A7010BD68610D0045
:1054CC0010B59DF8084044EA032343EA024242EA3D
:1054DC00016104234160037510BD37B50D788B78DD
:1054EC004A78C97800912946FFF7EAFF03B030BD2E
:1054FC0041747047704708B50021007CFEF79CFF93
:10550C0030EA200028BF4FF0FF3008BD08B501215C
:10551C00007CFEF791FF30EA200028BF4FF0FF30EF
:10552C0008BD08B5007CFEF77FFF20EAE07008BDDF
:10553C0008B5007CFEF770FF20EAE07008BD007C27
:10554C00FEF78ABF10B51421044600F078FA204605
:10555C0010BD38B50446007C0D46FEF765FF0028EB
:10556C0001DC607C28B12946207CFEF76DFF20EA27
:10557C00E07038BD10B50446002363604FF47A73B5
:10558C00A360054B23600123084621746374114604
:10559C00FEF73AFF204610BD7C610D0010B51422B9
:1055AC000446002100F0D9FB204610BD30B50E4D4D
:1055BC0087B001A8FFF7F2FF296811F0010410D1A0
:1055CC002846FEF768FD60B101AA21460748FFF79F
:1055DC00D1FF2846FEF764FD054A0649034800F052
:1055EC0029FA024807B030BD30E4032034E403202C
:1055FC00E4D9032001550D0070474174704708B57C
:10560C00007CFEF7F9FE20EAE07008BD08B5007CCE
:10561C00FEF7D2FE20EAE07008BD08B5007CFEF76C
:10562C00DBFE30EA200028BF4FF0FF3008BD08B584
:10563C00007CFEF7C9FE30EA200028BF4FF0FF3097
:10564C0008BD007CFEF7D0BE10B51421044600F056
:10565C00F6F9204610BD70B5457C04460E4625B9BA
:10566C00007CFEF7C9FE002805DD3146207CBDE834
:10567C007040FEF799BE284670BD000010B5044678
:10568C0008461146002262604FF47A72A260054A05
:10569C0022600122207462741A46FEF77DFE2046B9
:1056AC0010BD00BFAC610D0038B50C4D296811F070
:1056BC00010411D12846FEF7EEFC68B1084A094BEB
:1056CC0009482146FFF7DAFF2846FEF7E9FC074AAE
:1056DC000749054800F0AEF9034838BDE0E4032063
:1056EC00E4E403205CE4032048E40320E4D9032031
:1056FC0005560D00002211464068FEF741BF0022FE
:10570C0011464068FEF74CBF00224068FEF740BFD0
:10571C00002281F001014068FEF72ABF00231A46DF
:10572C0001214068FEF71CBF00231A461946406849
:10573C00FEF70EBF002211464068FEF701BF0022A3
:10574C0011464068FEF7ECBE002202214068FEF7CD
:10575C00EFBE00231A464068FEF7DABE38B50546A0
:10576C0088B104684CB1A3681BB1032221462046C2
:10577C0098471021204600F062F928461421BDE814
:10578C00384000F05CB938BD10B103685B6818474D
:10579C00704710B503680446BBB15868FEF7BCFDF2
:1057AC0078B923685A7C12B95868FEF7BDFD236896
:1057BC005868FEF7C1FD20680023236028B1FFF76D
:1057CC00CDFF206808B1FFF7C9FF204610BD38B5E2
:1057DC000446D0F8C40108B1FEF75BFCD4F8C00154
:1057EC0008B1FEF7B9FDD4F8BC5135B12846FFF726
:1057FC00D0FF0421284600F022F9206808B1FFF7F9
:10580C00C3FF204638BD000010B5044B044640F8D9
:10581C00083BFFF7DCFF204610BD00BFDC610D002C
:10582C0038B50E4C0E4B23600025022304F5E470B2
:10583C006360A560C4F8C451C4F8C851FEF784FD78
:10584C00084BC4F8CC5184F8D05123602046064A4A
:10585C000649BDE8384000F0EDB800BF68E503200C
:10586C0044620D00DC610D00E4D9032015580D00D5
:10587C00002211464068FEF763BE002211464068C4
:10588C00FEF77EBE002211464068FEF789BE00225C
:10589C004068FEF77DBE002281F001014068FEF7F2
:1058AC0067BE00231A4619464068FEF759BE00230E
:1058BC001A4619464068FEF74BBE00221146406856
:1058CC00FEF72EBE002202214068FEF731BE0023F7
:1058DC001A464068FEF71CBE024B04225A60024A6C
:1058EC001A6070473CE7032010620D0000231A4633
:1058FC004068FEF70DBE002202214068FEF718BE7C
:10590C00002211464068FEF70BBE0022114640688B
:10591C00FEF716BE00231A4619464068FEF718BE5D
:10592C0000231A4619464068FEF71ABE002281F081
:10593C0001014068FEF71CBE00224068FEF728BE3D
:10594C00002211464068FEF72BBE0022114640682B
:10595C00FEF716BE2DE9F043002495B016460D4611
:10596C000746FFF78DFD214620220CA8009400F07D
:10597C00F4F940230C9321466B460CAA3046FEF7F3
:10598C005FFC0446002844D1024601216868FEF7FA
:10599C00D7FD0221804622466868FEF7D1FD009EA5
:1059AC0081462146002E34D0002932D17368022B57
:1059BC0002D00A2B09D02AE0B8F1000F27D0716968
:1059CC0038460431FFF789FD20E0B9F1000F1ED0F5
:1059DC007469112201A800F0C0F906238DF8143067
:1059EC0001AD04F108031834186859682A4603C23B
:1059FC000833A3421546F7D101A906A807ADFFF756
:105A0C004DFD0FCD3C1D0FC42B6823700121F66991
:105A1C00C8E70098FEF70CFC384615B0BDE8F083DB
:105A2C00024B034A1A6000225A60704744E7032075
:105A3C0044620D000B460146184600F04BB9FEF7C8
:105A4C0026BB0000184B1A68D1075CBF01221A60F4
:105A5C00164B1A68D2075CBF01221A60144B1A68E5
:105A6C00D0075CBF01221A60124B1A68D1075CBFC9
:105A7C0001221A60104B1A68D2075CBF01221A600F
:105A8C000E4B1A68D0075CBF01221A600C4B1A68C7
:105A9C00D1075CBF01221A600A4B1A68D2075CBF9F
:105AAC0001221A60704700BF6CE7032068E70320EF
:105ABC0064E7032060E703205CE7032058E703203A
:105ACC0054E7032050E70320244B1A68D0075CBF2F
:105ADC0001221A60224B1A68D1075CBF01221A609E
:105AEC00204B1A68D2075CBF01221A601E4B1A6841
:105AFC00D0075CBF01221A601C4B1A68D1075CBF2F
:105B0C0001221A601A4B1A68D2075CBF01221A6074
:105B1C00184B1A68D0075CBF01221A60164B1A6822
:105B2C00D1075CBF01221A60144B1A68D2075CBF04
:105B3C0001221A60124B1A68D0075CBF01221A604E
:105B4C00104B1A68D1075CBF01221A600E4B1A6801
:105B5C00D2075CBF01221A60704700BF9CE703208C
:105B6C0098E7032094E7032090E703208CE70320B9
:105B7C0088E7032084E7032080E703207CE70320E9
:105B8C0078E7032074E7032070E70320244B1A689E
:105B9C00D0075CBF01221A60224B1A68D1075CBF88
:105BAC0001221A60204B1A68D2075CBF01221A60CE
:105BBC001E4B1A68D0075CBF01221A601C4B1A6876
:105BCC00D1075CBF01221A601A4B1A68D2075CBF5E
:105BDC0001221A60184B1A68D0075CBF01221A60A8
:105BEC00164B1A68D1075CBF01221A60144B1A6855
:105BFC00D2075CBF01221A60124B1A68D0075CBF37
:105C0C0001221A60104B1A68D1075CBF01221A607E
:105C1C000E4B1A68D2075CBF01221A60704700BF96
:105C2C00CCE70320C8E70320C4E70320C0E7032028
:105C3C00BCE70320B8E70320B4E70320B0E7032058
:105C4C00ACE70320A8E70320A4E70320A0E7032088
:105C5C00184B1A68D1075CBF01221A60164B1A68E0
:105C6C00D2075CBF01221A60144B1A68D0075CBFC4
:105C7C0001221A60124B1A68D1075CBF01221A600C
:105C8C00104B1A68D2075CBF01221A600E4B1A68BF
:105C9C00D0075CBF01221A600C4B1A68D1075CBF9D
:105CAC0001221A600A4B1A68D2075CBF01221A60E3
:105CBC00704700BFECE70320E8E70320E4E703208C
:105CCC00E0E70320DCE70320D8E70320D4E7032038
:105CDC00D0E7032010B5054C13462CB10A460146FB
:105CEC000220AFF3008010BD204610BD0000000064
:105CFC0010B501390244904207D010F8013B11F85D
:105D0C00014FA342F7D0181B10BD002010BD10B5D9
:105D1C00431E0A44914204D011F8014B03F8014F81
:105D2C00F8E710BD884210B501EB020301D8421E02
:105D3C000BE09842FBD28118D21AD34204D013F84C
:105D4C00014D01F8014DF8E710BD994204D011F84E
:105D5C00014B02F8014FF8E710BD02440346934291
:105D6C0002D003F8011BFAE77047000038B5124B5C
:105D7C001C68A36B0546D3B91820FEF721FC43F22F
:105D8C000E33A06303804AF6CD33438041F23423B3
:105D9C0083804EF26D63C3804DF6EC630381052363
:105DAC0043810B23838101220023C0E90423A36BCD
:105DBC0000221D615A6138BDE0D90320034613F857
:105DCC00012B002AFBD1181A0138704710B5034675
:105DDC0001448B4204D01A785C1C0AB12346F8E7C4
:105DEC00181A10BD1D400D0059400D0085400D00C6
:105DFC0089400D00000000000000FF004350554397
:105E0C006F6E6E6563740037313833316264392DCF
:105E1C00353330652D343537612D623164362D3292
:105E2C003230666430316462636336000000000017
:105E3C00000000005B460D0051460D0047460D006A
:105E4C003D460D0031460D0025460D0019460D004E
:105E5C0011460D0007460D00FD450D0061590D0062
:105E6C00000000000000000067470D006D470D00AA
:105E7C000D510D0089470D0069470D000000000011
:105E8C000000000061470D007B470D00AB4D0D007D
:105E9C008D470D0063470D00776972696E672E623E
:105EAC006C6500537461727420646973636F7665FA
:105EBC0072696E672073657276696365732E005321
:105ECC007461727420646973636F766572696E674E
:105EDC00206368617261637465726973746963735A
:105EEC002E00506565722064657669636520697360
:105EFC00206D697373696E6721004661696C656416
:105F0C0020746F20617070656E64207065657220FE
:105F1C0043656E7472616C206465766963652E00EE
:105F2C00436F6E6E65637465642062792043656EA1
:105F3C007472616C206465766963652E00446973C4
:105F4C00636F6E6E65637465642062792072656D33
:105F5C006F7465206465766963652E0043616E6EAF
:105F6C006F7420616464206E6577207065657220A3
:105F7C006465766963652E004E657720706572697D
:105F8C0070686572616C20697320636F6E6E6563F7
:105F9C007465642E004661696C656420746F2061C1
:105FAC007070656E6420646973636F766572656486
:105FBC002063686172616374657269737469632EBE
:105FCC00004661696C656420746F20617070656E49
:105FDC006420646973636F7665726564207365729F
:105FEC00766963652E004661696C656420746F2068
:105FFC00617070656E64206C6F63616C20636861A6
:10600C0072616374657269737469632E0044757090
:10601C006C69636174656420636861726163746543
:10602C007269737469632063616E6E6F742062654C
:10603C002061646465642E00FB349B5F80000080EB
:10604C00001000000000000062617564005365726E
:10605C0069616C0053657269616C310074797065AB
:10606C0000706172616D00636D6400696400686E3C
:10607C0064007374726D0066696C74006C766C00ED
:10608C0061646448616E646C65720072656D6F76F4
:10609C006548616E646C657200656E756D48616E05
:1060AC00646C657273004A534F4E53747265616D24
:1060BC004C6F6748616E646C65720061707000258E
:1060CC003031307520005D20002564002C20002824
:1060DC00293A2000205B00636F6465203D20002579
:1060EC00690064657461696C73203D20000D0A00C1
:1060FC0066006C6E00666E00636F646500646574A8
:10610C0061696C006E6F6E65007472616365006925
:10611C006E666F007761726E006572726F720070DE
:10612C00616E696300616C6C005A00252B3033641E
:10613C003A253032750025592D256D2D25645425B1
:10614C00483A254D3A2553257A0061736374696D7D
:10615C0065000000000000000000000029540D0044
:10616C0019540D001B540D0000000000000000002D
:10617C0001550D0051550D005F550D00D1510D000D
:10618C003D550D0003550D0019550D004B550D00D7
:10619C002F550D00FD540D00000000000000000004
:1061AC0005560D0055560D0063560D00D1510D00CE
:1061BC0019560D003B560D0027560D004F560D007D
:1061CC0007560D000B560D000000000000000000EB
:1061DC005F570D0055570D004B570D0041570D00E3
:1061EC0035570D0029570D001D570D0015570D0083
:1061FC000B570D0001570D0061590D0000000000F8
:10620C0000000000DB580D00D1580D00C7580D00E0
:10621C007D580D00BB580D00AF580D00A3580D0054
:10622C009B580D0091580D0087580D0061590D00B9
:10623C000000000000000000F9580D0003590D008B
:10624C000D590D0017590D0021590D002D590D0038
:10625C0039590D0045590D004D590D0057590D0078
:10626C0061590D000000000000000000000000005B
:10627C000000000000000000000000000000000012
:10628C000000000000000000000000000000000002
:10629C0000000000000000000000000000000000F2
:1062AC0000000000000000000000000000000000E2
:1062BC0000000000000000000000000000000000D2
:1062CC00000000004300000099410D0065460D00E0
:1062DC0079460D00A9510D0065520D0075520D0047
:1062EC00ED520D002D580D00E5580D002D5A0D00E6
:1062FC00515A0D00D55A0D00995B0D005D5C0D00D7
:04630C00000000008D
:046310000000000089
:1063140056610D000000000070620D0090620D00D7
:10632400B0620D000000000000000000000000004A
:1063340000000000D0620D0000000000000000001A
:106344000000000000000000000000000000000049
:106354000000000000000000000000000000000039
:106364000000000000000000000000000000000029
:086374000000000080D90320A5
:10637C00FFFFFFFF00000102030405060708090ADE
:10638C000B0C0D0E0F101112131415161718191AD9
:08639C001B1C1D1E1F20280020
:0463A40078563412E1
:04000003D000401CCD
:00000001FF
