:02000002D0002C
:1040000000400D0084610D00000006000C00050159
:084010000401E80500000000B6
:04401800005C0D003B
:10401C0009480A49884208B505D0094A824202D0AB
:10402C00121A01F088FD0748074A0021121A01F004
:10403C00A8FD014808BD00BF9CD90320F4600D0009
:10404C0004DA032004DA0320F0E7032070B501F052
:10405C00C5F8074C074BE41AA40800251E46A542D8
:10406C0004D056F8253098470135F8E770BD00BFED
:10407C00EC600D00B4600D0000F03EB808B500F027
:10408C0047F8BDE8084001F06BB800F04DBA00F0FD
:10409C0053BA00F051BA0078B0FA80F0400970477A
:1040AC00012303707047000000B593B0FF238DF817
:1040BC0004308DF8053055238DF806300D4B1868FB
:1040CC00CDF8070009A800F0DEFB0023072201A9A8
:1040DC0009A800F0F2FB00F099FC642100F0C3FC8D
:1040EC0000F094FC002209A900F004FD13B05DF867
:1040FC0004FB00BF145C0D0008B500F087FC00F059
:10410C00A3FC012000F0DDFFBDE80840FFF7CCBFA9
:10411C0008B500F07BFC00F00AFDFF22014608B157
:10412C0011461046BDE8084000F0DBBF70B500F04A
:10413C0043F81348134D00F01BFF134A1349104862
:10414C0001F08CFB002440F6D816281900F01AFB5D
:10415C0004F10800284400F096FB04F12C002844DC
:10416C00543400F090FBB442EFD1094800F05AFDF2
:10417C00054A08490648BDE8704001F06FBB00BF16
:10418C00E8E3032010DA032004DA03206F4B0D0060
:10419C0008DA03207D4B0D0008B5024B1B689B68A9
:1041AC00019308BD6802030008B5024B1B68DB686D
:1041BC00019308BD6802030008B5024B1B681B681D
:1041CC00019308BD2C02030008B5024B1B685B6809
:1041DC00019308BD1802030008B5024B1B68DB688D
:1041EC00019308BD1802030008B5024B1B685B69FC
:1041FC00019308BD1802030008B5024B1B689B68AD
:10420C00019308BD7802030008B5024B1B689B6C38
:10421C00019308BD7802030008B5024B1B68DB6CE8
:10422C00019308BD7802030008B5024B1B681B6D97
:10423C00019308BD7802030008B5024B1B689B6D07
:10424C00019308BD7802030008B5024B1B681B6E76
:10425C00019308BD7802030008B5034B1B68D3F823
:10426C009830019308BD00007802030008B5034B99
:10427C001B68D3F8F030019308BD000078020300EE
:10428C0008B5024B1B689B68019308BD48020300EC
:10429C0008B5024B1B681B69019308BD480203005B
:1042AC0008B5024B1B685B69019308BD480203000B
:1042BC0008B5024B1B685B6C019308BD48020300F8
:1042CC0008B5024B1B689B6C019308BD48020300A8
:1042DC0008B5024B1B68DB6C019308BD4802030058
:1042EC0008B5024B1B685B6D019308BD48020300C7
:1042FC0008B5024B1B685B69019308BD640203009F
:10430C0008B5024B1B681B68019308BD3C020300F7
:10431C0008B5024B1B68DB68019308BD3C02030027
:10432C0008B5024B1B681B69019308BD3C020300D6
:10433C0008B5024B1B685B69019308BD3C02030086
:10434C0008B5024B1B689B69019308BD3C02030036
:10435C0008B5024B1B68DB69019308BD3C020300E6
:10436C0008B5024B1B689B6A019308BD3C02030015
:10437C0008B5024B1B681B68019308BD4C02030077
:10438C0008B5024B1B681B69019308BD4C02030066
:10439C0008B5024B1B685B69019308BD4C02030016
:1043AC0008B5024B1B689B69019308BD4C020300C6
:1043BC0008B5024B1B68DB69019308BD4C02030076
:1043CC0008B5024B1B681B6A019308BD4C02030025
:1043DC0008B5024B1B685B68019308BD60020300C3
:1043EC0008B5024B1B689B68019308BD6002030073
:1043FC0008B5024B1B68DB68019308BD6002030023
:10440C0008B5024B1B689B69019308BD6002030051
:10441C0008B5024B1B68DB69019308BD6002030001
:10442C0008B5024B1B685B6B019308BD600203006F
:10443C0008B5024B1B681B6D019308BD600203009D
:10444C0008B5024B1B685B68019308BD2002030092
:10445C0008B5034B1B68D3F88830019308BD0000E6
:10446C002002030008B5034B1B68D3F8943001936A
:10447C0008BD00002002030008B5024B1B685B68F6
:10448C00019308BD4002030008B5024B1B689B68F2
:10449C00019308BD4002030008B5024B1B68DB68A2
:1044AC00019308BD4002030008B5024B1B681B6951
:1044BC00019308BD4002030008B5024B1B685B6901
:1044CC00019308BD4002030008B5024B1B689B69B1
:1044DC00019308BD4002030008B5024B1B68DB6961
:1044EC00019308BD4002030008B5024B1B681B6A10
:1044FC00019308BD4002030008B5024B1B681B6BFF
:10450C00019308BD4002030008B5024B1B685B6BAE
:10451C00019308BD4002030008B5024B1B68DB6B1E
:10452C00019308BD4402030008B5024B1B681B68CD
:10453C00019308BD1C02030008B5024B1B685B68A5
:10454C00019308BD1C02030008B5024B1B689B6855
:10455C00019308BD1C020300002211464068FFF7BE
:10456C00C3BF002211464068FFF7CEBF002240684F
:10457C00FFF7C2BF002281F001014068FFF7ACBF1A
:10458C0000231A4619464068FFF79EBF00231A46BF
:10459C0019464068FFF790BF002211464068FFF7AC
:1045AC0083BF002211464068FFF76EBF0022022134
:1045BC004068FFF771BF00231A464068FFF75CBFE5
:1045CC00024B03225A60024A1A607047F0E3032040
:1045DC00205C0D0010B50446006818B1FFF7ACFF65
:1045EC000023236010BD10B50446FFF7F3FF2046EF
:1045FC0010BD000010B5094C00204FF6FF73206071
:10460C00A080A07120816381FFF71AFF2046044A25
:10461C000449BDE8104001F021B900BFF8E30320C4
:10462C0004DA0320F3450D0010B504460068FFF7CB
:10463C0083FF204610BD10B50446006808B1FFF793
:10464C007BFF00232360A360636010BD38B5044674
:10465C000D4600680131FFF777FF10B184E82100A7
:10466C00012038BD10B50368044613B143688B4272
:10467C0007D22046FFF7EAFF20B1A3680BB92268E6
:10468C001370012010BD70B50E4611460446154638
:10469C00FFF7E8FF18B92046FFF7CDFF09E02A46DF
:1046AC003146A560206801F046FA2268A368002113
:1046BC00D154204670BD38B50023044603604360D6
:1046CC00836003730D4639B1084601F08BFA294615
:1046DC0002462046FFF7D7FF204638BD7047002022
:1046EC00704770470020704710B51421044601F044
:1046FC00BAF8204610BD10B51421044601F0B3F8E9
:10470C00204610BDFFF7C3BCFFF7C1BC10B5044673
:10471C00006808B1FFF7D4FD204610BD08B50A208B
:10472C00024A0021FFF77CFE08BD00BFE5410D00E9
:10473C0010B5036804469B689847A368013BA360C7
:10474C002BB923682046DB68BDE81040184710BD24
:10475C0010B500230370044B04461868FFF7B8FD2E
:10476C0001232370204610BD0CE4032010B5037800
:10477C0004461BB1024B1868FFF7B2FD204610BD72
:10478C000CE40320002202604260704708B5827975
:10479C008B799A4206D1062201F0BEF9B0FA80F06C
:1047AC00400908BD002008BD10B501230361054B6D
:1047BC00024603F1100153F8044B42F8044B8B42B0
:1047CC00F9D110BD245E0D00F0B58BB10024E51CB1
:1047DC008D420FD8661C055D875D974205D12E442E
:1047EC00B14207D31C60681CF0BD01352C44EEE7C8
:1047FC001846F0BD0020F0BD2DE9F74304460E46E7
:10480C001D461746002A3AD00A4601AB016AFFF74B
:10481C00DBFF9DF82830226A03BBF8B1961C2E44AE
:10482C00361A1F2E2BD8DDF8048008F10209C8EBCC
:10483C000202121A00EB080105EB090092B22144A6
:10484C00204401F083F96B1C04F808302A463946E1
:10485C0004EB090001F06FF9266210E0901C2B1894
:10486C001F2B0CD86B1CA354224420623946567063
:10487C0020442A4601F05FF9226A2A442262206A07
:10488C0003B0BDE8F0831FB50446034600F11F02D8
:10489C00002003F8010B93424FF00001F9D104AA58
:1048AC00062302F8013D012321620091204619469E
:1048BC00FFF7A2FF204604B010BD07B500931346C6
:1048CC000A46FF21FFF798FF03B05DF804FB73B5B0
:1048DC000A460E4601AB016A0446FFF775FF054612
:1048EC0078B10198226A2918121A521B21442044CB
:1048FC0001F021F9236A5D1B256231462046FFF742
:10490C00E6FF02B070BD000038B500254FF6FF730E
:10491C00044643800E22294605700571063001F0CD
:10492C0030F904F11400FFF73FFF04F12800FFF702
:10493C003BFF044904F13C00FFF7BDFEE56425652F
:10494C00204638BDDB5E0D0010B58369C26903EBF0
:10495C00C2029342184606D0046824888C4203F1A4
:10496C000803F6D110BD002010BD10B50A6852F82E
:10497C00023F03605368436010BD1FB502680B68AB
:10498C0012881B889A420C460CD101466846FFF7E8
:10499C00ECFF214602A8FFF7E8FF02A96846FFF7E3
:1049AC00F5FE00B9002004B010BD000010B504469F
:1049BC003420FFF76AFB014668B1002303604360B3
:1049CC008360C360036143618361C36103624362BB
:1049DC008362C3620363216019B90A4A0A20FFF794
:1049EC001FFD0020FFF708FC20B1064A00210A2019
:1049FC00FFF716FD002221680348FFF737FC20461D
:104A0C0010BD00BFE5410D00DD4D0D0010B50A4C89
:104A1C002368DB070ED42046FFF73DFB50B1074857
:104A2C00FFF7C4FF2046FFF73BFB054A0549034847
:104A3C0000F014FF014810BD08E4032004E4032037
:104A4C0004DA0320F14B0D0013B501A8FFF780FE2B
:104A5C000020FFF7D1FB044601A8FFF787FE04EA0C
:104A6C00E47002B010BD30B585B0002468460D4628
:104A7C00FFF76EFE0C23214601A8019402940394C7
:104A8C00ADF80630FFF7C8FB002805DB214601A86E
:104A9C00ADF80850FFF7B8FB04466846FFF766FE12
:104AAC00204605B030BD084609B90A4601E0096A3E
:104ABC000022FFF7B9BB10B50C4611B90A460846DF
:104ACC0006E001212046FFF702FF216A0022204662
:104ADC00BDE81040FFF7B0BB13B501A8FFF738FED7
:104AEC000020FFF7B1FB044601A8FFF73FFE20466C
:104AFC0002B010BD73B505460C4601A81646FFF76B
:104B0C0027FE21462846FFF7CEFF002808DB31465A
:104B1C002846FFF7D0FF002802DB2846FFF7DCFF12
:104B2C00044601A8FFF722FE204602B070BD0368C0
:104B3C00D8690028D4BF0020012070470B6803609F
:104B4C0013B15A6801325A60704710B504460068B8
:104B5C0028B14368013B43600BB9FFF7E9FD2046E0
:104B6C0010BD10B504460430FFF7EFFF204610BD12
:104B7C0010B504460430FFF7E8FF204610BD70B5B1
:104B8C0004684368054604EBC306A64204D0201D06
:104B9C00FFF7DBFF0834F8E72868FFF7CDFC284661
:104BAC0070BD70B504684368054604EBC306A642A5
:104BBC0004D0201DFFF7C9FF0834F8E72868FFF779
:104BCC00BBFC284670BD10B5046904F11800FFF752
:104BDC00E8FF04F10C00FFF7D2FF2046BDE81040BF
:104BEC00FFF755BAF8B504680746C4B1A569E3697F
:104BFC0005EBC306AE4204D0281DFFF7A6FF08350F
:104C0C00F8E7A069FFF798FC04F10C00FFF7C9FF67
:104C1C002046FFF7B4FF3421204600F024FE38462E
:104C2C00F8BD000073B500250560456006462420DC
:104C3C00FFF72BFA044678B103464FF6FF7223F8C0
:104C4C00022BC0F802505D608572C572C5600561AB
:104C5C0045618561C5610562002314200193FFF74E
:104C6C0014FA034628B1012242608260084A0260AD
:104C7C00046102A8726840F8042D73603460FFF779
:104C8C0064FF33680BB9FFF749FD304602B070BDC5
:104C9C00705C0D00884270B515461AD9904219D235
:104CAC00A1F10806511A0439151F44182B1F9E42F6
:104CBC0025D0042C07D055F8043C44F8043C294674
:104CCC002046FFF73BFF2846FFF73FFF083D083C17
:104CDC00ECE714D00C1D061D231F9D420FD0042E93
:104CEC0007D054F8043C46F8043C21463046FFF704
:104CFC0025FF2046FFF729FF08340836ECE770BD86
:104D0C002DE9F041046843680546884604EBC30767
:104D1C00A74218D041462046FFF72FFE064608B999
:104D2C000834F5E78CB1201DFFF70FFF2B686A687C
:104D3C0004F1080103EBC2022046FFF7ABFF6B68DE
:104D4C00013B6B6002E0002600E026463046BDE8E1
:104D5C00F081F7B5044651F8043B4768009301A86D
:104D6C00FFF7ECFE6668A3689E4214DB0136002E4A
:104D7C000BDDF000FFF7D8FB054618B394E80600EE
:104D8C0001EBC202FFF786FF00E000252068FFF769
:104D9C00D3FB2560A6602668626806EBC70506EBA8
:104DAC00C202294605F10800FFF774FF35B1009BDC
:104DBC0046F8373001A9281DFFF7C0FE63680133A0
:104DCC006360012501A8FFF7C0FE284603B0F0BDC3
:104DDC002DE9F04104468EB003A80D46FFF7B8FC50
:104DEC002368032B02D0042B42D087E004A8FFF7E2
:104DFC0019FF049B22891A806268049952F8083FB3
:104E0C00C1F802305368C1F8063007A8049B06931A
:104E1C0005A9FFF793FE06A905F11800FFF799FF06
:104E2C00044607A8FFF791FE2023069374B9364B6E
:104E3C00009306AA2346354907943220FFF7F8FA67
:104E4C00049B21461888FFF707FA0DE0304A0092C0
:104E5C00002306AA2D4907930120FFF7E9FA6B6A94
:104E6C0013B1E96A04A8984705A8FFF76EFE45E060
:104E7C0021892846FFF768FD074600283ED00468C4
:104E8C00A369E1694FF6FF72228003EBC1019942DD
:104E9C0003D053F8080B4280F9E7E668236906EB68
:104EAC00C308B04504D0301DFFF74FFE0836F8E7B5
:104EBC0000232361A669E36906EBC308B04504D05F
:104ECC00301DFFF742FE0836F8E70023E361A372BA
:104EDC00E372AB6A13B1296B3846984720230D4A0D
:104EEC0006930092002309490793012006AAFFF7B5
:104EFC009FFA394605F11800FFF702FF03A8FFF7E8
:104F0C0035FC0EB0BDE8F081E65C0D00845C0D0054
:104F1C000C5D0D00295D0D0010B50446406808B10C
:104F2C00FFF7B5F8204610BD07B503690C308DE8C6
:104F3C00090003F13C00FFF777FB6846FFF7ECFF35
:104F4C0003B05DF804FB000038B500230446036091
:104F5C0014200D46FFF799F828B1012343608360B4
:104F6C00024B036005612060204638BD545C0D0087
:104F7C0070B5002586B00560456004465420FFF7E7
:104F8C0084F8CDF810D00646059008B1FFF7BCFCAC
:104F9C00314601AB02AA03A80595FFF7D5FF039B89
:104FAC0062682660636003A80392FFF7CEFD04A835
:104FBC00FFF7B2FF23680BB9FFF7B0FB204606B032
:104FCC0070BD000010B5064C002320462360FFF78F
:104FDC006FF92046034A0449BDE8104000F03EBC7E
:104FEC000CE4032004DA032019470D00F8B506463B
:104FFC000D468F180024BD420CD0336815F8011BE8
:10500C009B6830469847002801DB0444F3E7002CEA
:10501C0008BF04462046F8BD70B505460C46084648
:10502C0049B100F0DFFD2B68024621462846DB68BB
:10503C00BDE87040184770BD03689B68184730B5D1
:10504C008BB00B4600218DF82410012A98BF0A2240
:10505C000DF12304B3FBF2F505FB123303F0FF0350
:10506C00092B94BF30333733DBB2214604F80139B6
:10507C002B46002DEED1FFF7CFFF0BB030BD00005B
:10508C00014B024A1A60704710E40320A75E0D0022
:10509C00024B1A68024B1A60704700BF9CD9032060
:1050AC0014E4032010B58368044613B103220146AF
:1050BC009847204610BD10B50446FFF7F3FF204675
:1050CC0010BD10B50446FFF79BF9844208D01CB103
:1050DC00BDE81040FFF784B9BDE81040FFF788B970
:1050EC0010BD70B505460E461446FFF789F950B150
:1050FC0044EA062040EA0540FFF76AF9E720BDE8DC
:10510C007040FFF785B970BD0348044A0449002379
:10511C00836000F0A3BB00BF18E4032004DA032073
:10512C00C3500D0008B50C4B33B100F053F90368B4
:10513C001B699847002809DC084B63B100F0C8F9DB
:10514C0003681B699847002803DC08BDAFF3008097
:10515C00F2E7AFF3008008BD000000000000000083
:10516C0008B5FFF7DFFFFFF73FF8014B186008BDEC
:10517C004CE703200248034A0349121A00F0DBBC37
:10518C0000F4032004F40320F0600D0007B50023A5
:10519C0000931A466FF07701FFF764F903B05DF8DE
:1051AC0004FB000007B543880A2B08D0502B09D10B
:1051BC00094B1B683BB103B05DF804EB1847FFF7D4
:1051CC00E5FF06E0002300931A466FF07701FFF726
:1051DC0049F903B05DF804FB28E4032038B5104C02
:1051EC00104D2368AB42104B0CBF012200221A70E9
:1051FC0002D0FFF7BFFF2560FEF7E6FF044600F084
:10520C00C9FC0A4B13B12046AFF3008000210748BC
:10521C00FFF782F900210648BDE83840FFF718B9BE
:10522C0000F403201E1C279A2CE40320000000002D
:10523C00B1510D00704710B51821044600F013FB56
:10524C00204610BDF0B5037D062B8DB00E4600F147
:10525C0004074FF0000402D000F1080518E00CAD73
:10526C00394605F8304D2F232A460A20FFF740F81F
:10527C00284600F0B7FC33680246DB682946304606
:10528C0098470FE024B12E213046FFF7D5FE044499
:10529C0015F8011D0A223046FFF7D1FEBD42044429
:1052AC00F0D120460DB0F0BD10B5054B04461122CF
:1052BC0040F8043B002100F064FC204610BD00BF08
:1052CC00485F0D000346074A10B543F8042B01F163
:1052DC00100251F8044B43F8044B9142F9D10A786F
:1052EC001A7010BD485F0D0010B59DF8084044EAD7
:1052FC00032343EA024242EA01610423416003753D
:10530C0010BD37B50D788B784A78C978009129464D
:10531C00FFF7EAFF03B030BD41747047704708B522
:10532C000021007CFFF73CF830EA200028BF4FF04A
:10533C00FF3008BD08B50121007CFFF731F830EAD9
:10534C00200028BF4FF0FF3008BD08B5007CFFF7E8
:10535C001FF820EAE07008BD08B5007CFFF710F8D4
:10536C0020EAE07008BD007CFFF72AB810B51421C4
:10537C00044600F078FA204610BD38B50446007C8F
:10538C000D46FFF705F8002801DC607C28B12946A2
:10539C00207CFFF70DF820EAE07038BD10B504460C
:1053AC00002363604FF47A73A360054B23600123E1
:1053BC000846217463741146FEF7DAFF204610BDCF
:1053CC005C5F0D0010B514220446002100F0D9FBDF
:1053DC00204610BD30B50E4D87B001A8FFF7F2FF87
:1053EC00296811F0010410D12846FEF754FE60B173
:1053FC0001AA21460748FFF7D1FF2846FEF750FEC9
:10540C00054A0649034800F029FA024807B030BDA6
:10541C0030E4032034E4032004DA032029530D0084
:10542C0070474174704708B5007CFEF799FF20EA7D
:10543C00E07008BD08B5007CFEF772FF20EAE07052
:10544C0008BD08B5007CFEF77BFF30EA200028BFC2
:10545C004FF0FF3008BD08B5007CFEF769FF30EA5D
:10546C00200028BF4FF0FF3008BD007CFEF770BF56
:10547C0010B51421044600F0F6F9204610BD70B5A5
:10548C00457C04460E4625B9007CFEF769FF0028D2
:10549C0005DD3146207CBDE87040FEF739BF28465B
:1054AC0070BD000010B5044608461146002262602B
:1054BC004FF47A72A260054A226001222074627451
:1054CC001A46FEF71DFF204610BD00BF8C5F0D0075
:1054DC0038B50C4D296811F0010411D12846FEF79E
:1054EC00DAFD68B1084A094B09482146FFF7DAFF93
:1054FC002846FEF7D5FD074A0749054800F0AEF9E6
:10550C00034838BDE0E40320E4E403205CE403201A
:10551C0048E4032004DA03202D540D000022114628
:10552C004068FEF7E1BF002211464068FEF7ECBF71
:10553C0000224068FEF7E0BF002281F001014068C4
:10554C00FEF7CABF00231A4601214068FEF7BCBF14
:10555C0000231A4619464068FEF7AEBF00221146DA
:10556C004068FEF7A1BF002211464068FEF78CBFD1
:10557C00002202214068FEF78FBF00231A464068C4
:10558C00FEF77ABF38B5054688B104684CB1A368FC
:10559C001BB103222146204698471021204600F0DB
:1055AC0062F928461421BDE8384000F05CB938BDDA
:1055BC0010B103685B681847704710B50368044660
:1055CC00BBB15868FEF75CFE78B923685A7C12B9F7
:1055DC005868FEF75DFE23685868FEF761FE206888
:1055EC000023236028B1FFF7CDFF206808B1FFF737
:1055FC00C9FF204610BD38B50446D0F8C40108B127
:10560C00FEF747FDD4F8C00108B1FEF759FED4F8F7
:10561C00BC5135B12846FFF7D0FF0421284600F0D5
:10562C0022F9206808B1FFF7C3FF204638BD0000FF
:10563C0010B5044B044640F8083BFFF7DCFF20464E
:10564C0010BD00BFBC5F0D0038B50E4C0E4B236077
:10565C000025022304F5E4706360A560C4F8C4510E
:10566C00C4F8C851FEF724FE084BC4F8CC5184F89A
:10567C00D05123602046064A0649BDE8384000F068
:10568C00EDB800BF68E5032024600D00BC5F0D0081
:10569C0004DA03203D560D00002211464068FEF747
:1056AC0003BF002211464068FEF71EBF00221146C0
:1056BC004068FEF729BF00224068FEF71DBF00229C
:1056CC0081F001014068FEF707BF00231A46194616
:1056DC004068FEF7F9BE00231A4619464068FEF7EB
:1056EC00EBBE002211464068FEF7CEBE002202211E
:1056FC004068FEF7D1BE00231A464068FEF7BCBED8
:10570C00024B04225A60024A1A6070473CE703209D
:10571C00F05F0D0000231A464068FEF7ADBE002274
:10572C0002214068FEF7B8BE002211464068FEF721
:10573C00ABBE002211464068FEF7B6BE00231A46E7
:10574C0019464068FEF7B8BE00231A461946406851
:10575C00FEF7BABE002281F001014068FEF7BCBE24
:10576C0000224068FEF7C8BE002211464068FEF7D2
:10577C00CBBE002211464068FEF7B6BE2DE9F043C1
:10578C00002495B016460D460746FFF78DFD2146C1
:10579C0020220CA8009400F0F4F940230C9321462D
:1057AC006B460CAA3046FEF7FFFC0446002844D199
:1057BC00024601216868FEF777FE022180462246E8
:1057CC006868FEF771FE009E81462146002E34D09B
:1057DC00002932D17368022B02D00A2B09D02AE09F
:1057EC00B8F1000F27D0716938460431FFF789FDF5
:1057FC0020E0B9F1000F1ED07469112201A800F04D
:10580C00C0F906238DF8143001AD04F108031834E7
:10581C00186859682A4603C20833A3421546F7D1C3
:10582C0001A906A807ADFFF74DFD0FCD3C1D0FC418
:10583C002B6823700121F669C8E70098FEF7ACFCD1
:10584C00384615B0BDE8F083024B034A1A600022BB
:10585C005A60704744E7032024600D000B46014654
:10586C00184600F04BB9FEF712BC0000184B1A6832
:10587C00D1075CBF01221A60164B1A68D2075CBFB5
:10588C0001221A60144B1A68D0075CBF01221A60FF
:10589C00124B1A68D1075CBF01221A60104B1A68B0
:1058AC00D2075CBF01221A600E4B1A68D0075CBF8E
:1058BC0001221A600C4B1A68D1075CBF01221A60D6
:1058CC000A4B1A68D2075CBF01221A60704700BFEE
:1058DC006CE7032068E7032064E7032060E70320FC
:1058EC005CE7032058E7032054E7032050E703202C
:1058FC00244B1A68D0075CBF01221A60224B1A682D
:10590C00D1075CBF01221A60204B1A68D2075CBF1A
:10591C0001221A601E4B1A68D0075CBF01221A6064
:10592C001C4B1A68D1075CBF01221A601A4B1A680B
:10593C00D2075CBF01221A60184B1A68D0075CBFF3
:10594C0001221A60164B1A68D1075CBF01221A603B
:10595C00144B1A68D2075CBF01221A60124B1A68EA
:10596C00D0075CBF01221A60104B1A68D1075CBFCC
:10597C0001221A600E4B1A68D2075CBF01221A6012
:10598C00704700BF9CE7032098E7032094E70320AF
:10599C0090E703208CE7032088E7032084E70320AB
:1059AC0080E703207CE7032078E7032074E70320DB
:1059BC0070E70320244B1A68D0075CBF01221A60E1
:1059CC00224B1A68D1075CBF01221A60204B1A685F
:1059DC00D2075CBF01221A601E4B1A68D0075CBF4D
:1059EC0001221A601C4B1A68D1075CBF01221A6095
:1059FC001A4B1A68D2075CBF01221A60184B1A683E
:105A0C00D0075CBF01221A60164B1A68D1075CBF25
:105A1C0001221A60144B1A68D2075CBF01221A606B
:105A2C00124B1A68D0075CBF01221A60104B1A681F
:105A3C00D1075CBF01221A600E4B1A68D2075CBFFB
:105A4C0001221A60704700BFCCE70320C8E703208F
:105A5C00C4E70320C0E70320BCE70320B8E703201A
:105A6C00B4E70320B0E70320ACE70320A8E703204A
:105A7C00A4E70320A0E70320184B1A68D1075CBFEA
:105A8C0001221A60164B1A68D2075CBF01221A60F9
:105A9C00144B1A68D0075CBF01221A60124B1A68AB
:105AAC00D1075CBF01221A60104B1A68D2075CBF89
:105ABC0001221A600E4B1A68D0075CBF01221A60D3
:105ACC000C4B1A68D1075CBF01221A600A4B1A688A
:105ADC00D2075CBF01221A60704700BFECE70320BD
:105AEC00E8E70320E4E70320E0E70320DCE70320FA
:105AFC00D8E70320D4E70320D0E7032010B5054CEA
:105B0C0013462CB10A4601460220AFF3008010BDAB
:105B1C00204610BD0000000010B50139024490422F
:105B2C0007D010F8013B11F8014FA342F7D0181B16
:105B3C0010BD002010BD10B5431E0A44914204D084
:105B4C0011F8014B03F8014FF8E710BD884210B56E
:105B5C0001EB020301D8421E0BE09842FBD28118E4
:105B6C00D21AD34204D013F8014D01F8014DF8E7D5
:105B7C0010BD994204D011F8014B02F8014FF8E71F
:105B8C0010BD02440346934202D003F8011BFAE70E
:105B9C007047000038B5124B1C68A36B0546D3B98F
:105BAC001820FEF7C1FC43F20E33A06303804AF6C3
:105BBC00CD33438041F2342383804EF26D63C38036
:105BCC004DF6EC630381052343810B238381012272
:105BDC000023C0E90423A36B00221D615A6138BD68
:105BEC0000DA0320034613F8012B002AFBD1181A04
:105BFC00013870471D400D0059400D0085400D00C7
:105C0C0089400D00000000000000FF0000000000B3
:105C1C0000000000C3450D00B9450D00AF450D0057
:105C2C00A5450D0099450D008D450D0081450D00D4
:105C3C0079450D006F450D0065450D0089570D0028
:105C4C000000000000000000EF460D00F5460D00BE
:105C5C00354F0D0011470D00F1460D0000000000FE
:105C6C0000000000E9460D0003470D00D34B0D006A
:105C7C0015470D00EB460D00776972696E672E6251
:105C8C006C6500537461727420646973636F76651C
:105C9C0072696E672073657276696365732E005343
:105CAC007461727420646973636F766572696E6770
:105CBC00206368617261637465726973746963737C
:105CCC002E00506565722064657669636520697382
:105CDC00206D697373696E6721004661696C656438
:105CEC0020746F20617070656E6420706565722021
:105CFC0043656E7472616C206465766963652E0011
:105D0C00436F6E6E65637465642062792043656EC3
:105D1C007472616C206465766963652E00446973E6
:105D2C00636F6E6E65637465642062792072656D55
:105D3C006F7465206465766963652E0043616E6ED1
:105D4C006F7420616464206E6577207065657220C5
:105D5C006465766963652E004E657720706572699F
:105D6C0070686572616C20697320636F6E6E656319
:105D7C007465642E004661696C656420746F2061E3
:105D8C007070656E6420646973636F7665726564A8
:105D9C002063686172616374657269737469632EE0
:105DAC00004661696C656420746F20617070656E6B
:105DBC006420646973636F766572656420736572C1
:105DCC00766963652E004661696C656420746F208A
:105DDC00617070656E64206C6F63616C20636861C8
:105DEC0072616374657269737469632E00447570B3
:105DFC006C69636174656420636861726163746566
:105E0C007269737469632063616E6E6F742062656E
:105E1C002061646465642E00FB349B5F800000800D
:105E2C000010000000000000626175640053657290
:105E3C0069616C0053657269616C310074797065CD
:105E4C0000706172616D00636D6400696400686E5E
:105E5C0064007374726D0066696C74006C766C000F
:105E6C0061646448616E646C65720072656D6F7616
:105E7C006548616E646C657200656E756D48616E27
:105E8C00646C657273004A534F4E53747265616D46
:105E9C004C6F6748616E646C6572006170700025B0
:105EAC003031307520005D20002564002C20002846
:105EBC00293A2000205B00636F6465203D2000259B
:105ECC00690064657461696C73203D20000D0A00E3
:105EDC0066006C6E00666E00636F646500646574CA
:105EEC0061696C006E6F6E65007472616365006948
:105EFC006E666F007761726E006572726F72007001
:105F0C00616E696300616C6C005A00252B30336440
:105F1C003A253032750025592D256D2D25645425D3
:105F2C00483A254D3A2553257A0061736374696D9F
:105F3C0065000000000000000000000051520D0040
:105F4C0041520D0043520D00000000000000000003
:105F5C0029530D0079530D0087530D00F94F0D0097
:105F6C0065530D002B530D0041530D0073530D0061
:105F7C0057530D0025530D000000000000000000D9
:105F8C002D540D007D540D008B540D00F94F0D0058
:105F9C0041540D0063540D004F540D0077540D0007
:105FAC002F540D0033540D000000000000000000C1
:105FBC0087550D007D550D0073550D0069550D006D
:105FCC005D550D0051550D0045550D003D550D000D
:105FDC0033550D0029550D0089570D0000000000A8
:105FEC000000000003570D00F9560D00EF560D0090
:105FFC00A5560D00E3560D00D7560D00CB560D00DF
:10600C00C3560D00B9560D00AF560D0089570D0043
:10601C00000000000000000021570D002B570D0060
:10602C0035570D003F570D0049570D0055570D00C2
:10603C0061570D006D570D0075570D007F570D0002
:10604C0089570D0000000000000000000000000057
:10605C000000000000000000000000000000000034
:10606C000000000000000000000000000000000024
:10607C000000000000000000000000000000000014
:10608C000000000000000000000000000000000004
:10609C0000000000000000000000000000000000F4
:1060AC00000000004300000039410D00CD450D00FB
:1060BC0001460D00D14F0D008D500D009D500D006F
:1060CC0015510D0055560D000D570D0055580D006E
:1060DC0079580D00FD580D00C1590D00855A0D0061
:0460EC0000000000B0
:0460F00000000000AC
:1060F400365F0D000000000050600D0070600D0060
:1061040090600D000000000000000000000000008E
:1061140000000000B0600D0000000000000000005E
:10612400000000000000000000000000000000006B
:10613400000000000000000000000000000000005B
:10614400000000000000000000000000000000004B
:0861540000000000A0D90320A7
:10615C00FFFFFFFF00000102030405060708090A00
:10616C000B0C0D0E0F101112131415161718191AFB
:08617C001B1C1D1E1F20280042
:046184007856341203
:04000003D000401CCD
:00000001FF
